{
  "_format": "hh-sol-artifact-1",
  "contractName": "UniversalInterpreter",
  "sourceName": "contract/UniversalInterpreter.sol",
  "abi": [
    {
      "inputs": [],
      "stateMutability": "nonpayable",
      "type": "constructor"
    },
    {
      "inputs": [],
      "name": "ReentrancyGuardReentrantCall",
      "type": "error"
    },
    {
      "anonymous": false,
      "inputs": [
        {
          "indexed": true,
          "internalType": "address",
          "name": "executor",
          "type": "address"
        }
      ],
      "name": "AttackExecutionStarted",
      "type": "event"
    },
    {
      "anonymous": false,
      "inputs": [
        {
          "indexed": true,
          "internalType": "address",
          "name": "executor",
          "type": "address"
        },
        {
          "indexed": true,
          "internalType": "uint256",
          "name": "parentId",
          "type": "uint256"
        },
        {
          "indexed": false,
          "internalType": "uint256",
          "name": "instructionIndex",
          "type": "uint256"
        },
        {
          "indexed": false,
          "internalType": "bool",
          "name": "success",
          "type": "bool"
        }
      ],
      "name": "InstructionExecuted",
      "type": "event"
    },
    {
      "anonymous": false,
      "inputs": [
        {
          "indexed": true,
          "internalType": "address",
          "name": "initiator",
          "type": "address"
        },
        {
          "indexed": false,
          "internalType": "bytes",
          "name": "data",
          "type": "bytes"
        }
      ],
      "name": "UnknownCallbackReceived",
      "type": "event"
    },
    {
      "stateMutability": "payable",
      "type": "fallback"
    },
    {
      "inputs": [],
      "name": "MAIN_EXECUTION_ID",
      "outputs": [
        {
          "internalType": "uint256",
          "name": "",
          "type": "uint256"
        }
      ],
      "stateMutability": "view",
      "type": "function"
    },
    {
      "inputs": [
        {
          "internalType": "bytes32[]",
          "name": "_invocationHashes",
          "type": "bytes32[]"
        },
        {
          "internalType": "uint256[]",
          "name": "_parentIds",
          "type": "uint256[]"
        },
        {
          "internalType": "uint256[]",
          "name": "_instructionParentIds",
          "type": "uint256[]"
        },
        {
          "components": [
            {
              "internalType": "enum UniversalInterpreter.CallType",
              "name": "callType",
              "type": "uint8"
            },
            {
              "internalType": "address",
              "name": "target",
              "type": "address"
            },
            {
              "internalType": "uint256",
              "name": "value",
              "type": "uint256"
            },
            {
              "internalType": "bytes",
              "name": "callData",
              "type": "bytes"
            }
          ],
          "internalType": "struct UniversalInterpreter.CallInstruction[]",
          "name": "_allInstructions",
          "type": "tuple[]"
        }
      ],
      "name": "executeAttack",
      "outputs": [],
      "stateMutability": "payable",
      "type": "function"
    }
  ],
  "bytecode": "0x608060405234801561001057600080fd5b5060016000819055506118f6806100286000396000f3fe60806040526004361061002d5760003560e01c80630f27325514610144578063bd5bce911461016f5761002e565b5b600032905060008036604051610045929190610ba5565b604051809103902090506000600160008473ffffffffffffffffffffffffffffffffffffffff1673ffffffffffffffffffffffffffffffffffffffff168152602001908152602001600020600083815260200190815260200160002054905060008103610138578273ffffffffffffffffffffffffffffffffffffffff167f8338fa5ad1d8db424773ff5e455d990f5499c51cba340a301a14de51837c5f5b6000366040516100f5929190610c0d565b60405180910390a26040517f08c379a000000000000000000000000000000000000000000000000000000000815260040161012f90610c8e565b60405180910390fd5b610142838261018b565b005b34801561015057600080fd5b50610159610682565b6040516101669190610cc7565b60405180910390f35b6101896004803603810190610184919061120b565b610687565b005b6000600260008473ffffffffffffffffffffffffffffffffffffffff1673ffffffffffffffffffffffffffffffffffffffff1681526020019081526020016000206000838152602001908152602001600020905060005b818054905081101561067c576000828281548110610203576102026112e2565b5b90600052602060002090600302016040518060800160405290816000820160009054906101000a900460ff16600281111561024157610240611311565b5b600281111561025357610252611311565b5b81526020016000820160019054906101000a900473ffffffffffffffffffffffffffffffffffffffff1673ffffffffffffffffffffffffffffffffffffffff1673ffffffffffffffffffffffffffffffffffffffff168152602001600182015481526020016002820180546102c79061136f565b80601f01602080910402602001604051908101604052809291908181526020018280546102f39061136f565b80156103405780601f1061031557610100808354040283529160200191610340565b820191906000526020600020905b81548152906001019060200180831161032357829003601f168201915b505050505081525050905060008060028111156103605761035f611311565b5b8260000151600281111561037757610376611311565b5b036103fb57816020015173ffffffffffffffffffffffffffffffffffffffff16826040015183606001516040516103ae9190611406565b60006040518083038185875af1925050503d80600081146103eb576040519150601f19603f3d011682016040523d82523d6000602084013e6103f0565b606091505b5050809150506105d6565b6001600281111561040f5761040e611311565b5b8260000151600281111561042657610425611311565b5b036104ea576000826040015114610472576040517f08c379a000000000000000000000000000000000000000000000000000000000815260040161046990611469565b60405180910390fd5b816020015173ffffffffffffffffffffffffffffffffffffffff16826060015160405161049f9190611406565b600060405180830381855af49150503d80600081146104da576040519150601f19603f3d011682016040523d82523d6000602084013e6104df565b606091505b5050809150506105d5565b6002808111156104fd576104fc611311565b5b8260000151600281111561051457610513611311565b5b036105d4576000826040015114610560576040517f08c379a0000000000000000000000000000000000000000000000000000000008152600401610557906114d5565b60405180910390fd5b816020015173ffffffffffffffffffffffffffffffffffffffff16826060015160405161058d9190611406565b600060405180830381855afa9150503d80600081146105c8576040519150601f19603f3d011682016040523d82523d6000602084013e6105cd565b606091505b5050809150505b5b5b848673ffffffffffffffffffffffffffffffffffffffff167fb5d49b1b20d0d5012a8be947f888b293e545224981323ad21e30645af3a47c2c858460405161061f929190611510565b60405180910390a380610667576040517f08c379a000000000000000000000000000000000000000000000000000000000815260040161065e906115ab565b60405180910390fd5b50508080610674906115fa565b9150506101e2565b50505050565b600181565b61068f610a2b565b60003390508073ffffffffffffffffffffffffffffffffffffffff167faec88ff3ce03a5231ad285afd0ccd73338aa7e5470f904bc689d37be619cd1b960405160405180910390a260005b855181101561077f578481815181106106f6576106f56112e2565b5b6020026020010151600160008473ffffffffffffffffffffffffffffffffffffffff1673ffffffffffffffffffffffffffffffffffffffff1681526020019081526020016000206000888481518110610752576107516112e2565b5b60200260200101518152602001908152602001600020819055508080610777906115fa565b9150506106da565b5060005b82518110156108ec5760008482815181106107a1576107a06112e2565b5b60200260200101519050600260008473ffffffffffffffffffffffffffffffffffffffff1673ffffffffffffffffffffffffffffffffffffffff168152602001908152602001600020600082815260200190815260200160002084838151811061080e5761080d6112e2565b5b6020026020010151908060018154018082558091505060019003906000526020600020906003020160009091909190915060008201518160000160006101000a81548160ff0219169083600281111561086a57610869611311565b5b021790555060208201518160000160016101000a81548173ffffffffffffffffffffffffffffffffffffffff021916908373ffffffffffffffffffffffffffffffffffffffff1602179055506040820151816001015560608201518160020190816108d591906117ee565b5050505080806108e4906115fa565b915050610783565b506108f881600161018b565b60005b855181101561098557600160008373ffffffffffffffffffffffffffffffffffffffff1673ffffffffffffffffffffffffffffffffffffffff1681526020019081526020016000206000878381518110610958576109576112e2565b5b6020026020010151815260200190815260200160002060009055808061097d906115fa565b9150506108fb565b5060005b8351811015610a1b57600260008373ffffffffffffffffffffffffffffffffffffffff1673ffffffffffffffffffffffffffffffffffffffff16815260200190815260200160002060008583815181106109e6576109e56112e2565b5b602002602001015181526020019081526020016000206000610a089190610a7b565b8080610a13906115fa565b915050610989565b5050610a25610a71565b50505050565b600260005403610a67576040517f3ee5aeb500000000000000000000000000000000000000000000000000000000815260040160405180910390fd5b6002600081905550565b6001600081905550565b5080546000825560030290600052602060002090810190610a9c9190610a9f565b50565b5b80821115610b0557600080820160006101000a81549060ff02191690556000820160016101000a81549073ffffffffffffffffffffffffffffffffffffffff02191690556001820160009055600282016000610afc9190610b09565b50600301610aa0565b5090565b508054610b159061136f565b6000825580601f10610b275750610b46565b601f016020900490600052602060002090810190610b459190610b49565b5b50565b5b80821115610b62576000816000905550600101610b4a565b5090565b600081905092915050565b82818337600083830152505050565b6000610b8c8385610b66565b9350610b99838584610b71565b82840190509392505050565b6000610bb2828486610b80565b91508190509392505050565b600082825260208201905092915050565b6000601f19601f8301169050919050565b6000610bec8385610bbe565b9350610bf9838584610b71565b610c0283610bcf565b840190509392505050565b60006020820190508181036000830152610c28818486610be0565b90509392505050565b600082825260208201905092915050565b7f496e7465727072657465723a20556e6b6e6f776e2063616c6c6261636b000000600082015250565b6000610c78601d83610c31565b9150610c8382610c42565b602082019050919050565b60006020820190508181036000830152610ca781610c6b565b9050919050565b6000819050919050565b610cc181610cae565b82525050565b6000602082019050610cdc6000830184610cb8565b92915050565b6000604051905090565b600080fd5b600080fd5b600080fd5b7f4e487b7100000000000000000000000000000000000000000000000000000000600052604160045260246000fd5b610d3382610bcf565b810181811067ffffffffffffffff82111715610d5257610d51610cfb565b5b80604052505050565b6000610d65610ce2565b9050610d718282610d2a565b919050565b600067ffffffffffffffff821115610d9157610d90610cfb565b5b602082029050602081019050919050565b600080fd5b6000819050919050565b610dba81610da7565b8114610dc557600080fd5b50565b600081359050610dd781610db1565b92915050565b6000610df0610deb84610d76565b610d5b565b90508083825260208201905060208402830185811115610e1357610e12610da2565b5b835b81811015610e3c5780610e288882610dc8565b845260208401935050602081019050610e15565b5050509392505050565b600082601f830112610e5b57610e5a610cf6565b5b8135610e6b848260208601610ddd565b91505092915050565b600067ffffffffffffffff821115610e8f57610e8e610cfb565b5b602082029050602081019050919050565b610ea981610cae565b8114610eb457600080fd5b50565b600081359050610ec681610ea0565b92915050565b6000610edf610eda84610e74565b610d5b565b90508083825260208201905060208402830185811115610f0257610f01610da2565b5b835b81811015610f2b5780610f178882610eb7565b845260208401935050602081019050610f04565b5050509392505050565b600082601f830112610f4a57610f49610cf6565b5b8135610f5a848260208601610ecc565b91505092915050565b600067ffffffffffffffff821115610f7e57610f7d610cfb565b5b602082029050602081019050919050565b600080fd5b600080fd5b60038110610fa657600080fd5b50565b600081359050610fb881610f99565b92915050565b600073ffffffffffffffffffffffffffffffffffffffff82169050919050565b6000610fe982610fbe565b9050919050565b610ff981610fde565b811461100457600080fd5b50565b60008135905061101681610ff0565b92915050565b600080fd5b600067ffffffffffffffff82111561103c5761103b610cfb565b5b61104582610bcf565b9050602081019050919050565b600061106561106084611021565b610d5b565b9050828152602081018484840111156110815761108061101c565b5b61108c848285610b71565b509392505050565b600082601f8301126110a9576110a8610cf6565b5b81356110b9848260208601611052565b91505092915050565b6000608082840312156110d8576110d7610f8f565b5b6110e26080610d5b565b905060006110f284828501610fa9565b600083015250602061110684828501611007565b602083015250604061111a84828501610eb7565b604083015250606082013567ffffffffffffffff81111561113e5761113d610f94565b5b61114a84828501611094565b60608301525092915050565b600061116961116484610f63565b610d5b565b9050808382526020820190506020840283018581111561118c5761118b610da2565b5b835b818110156111d357803567ffffffffffffffff8111156111b1576111b0610cf6565b5b8086016111be89826110c2565b8552602085019450505060208101905061118e565b5050509392505050565b600082601f8301126111f2576111f1610cf6565b5b8135611202848260208601611156565b91505092915050565b6000806000806080858703121561122557611224610cec565b5b600085013567ffffffffffffffff81111561124357611242610cf1565b5b61124f87828801610e46565b945050602085013567ffffffffffffffff8111156112705761126f610cf1565b5b61127c87828801610f35565b935050604085013567ffffffffffffffff81111561129d5761129c610cf1565b5b6112a987828801610f35565b925050606085013567ffffffffffffffff8111156112ca576112c9610cf1565b5b6112d6878288016111dd565b91505092959194509250565b7f4e487b7100000000000000000000000000000000000000000000000000000000600052603260045260246000fd5b7f4e487b7100000000000000000000000000000000000000000000000000000000600052602160045260246000fd5b7f4e487b7100000000000000000000000000000000000000000000000000000000600052602260045260246000fd5b6000600282049050600182168061138757607f821691505b60208210810361139a57611399611340565b5b50919050565b600081519050919050565b60005b838110156113c95780820151818401526020810190506113ae565b60008484015250505050565b60006113e0826113a0565b6113ea8185610b66565b93506113fa8185602086016113ab565b80840191505092915050565b600061141282846113d5565b915081905092915050565b7f44454c454741544543414c4c2063616e6e6f742063617272792076616c756500600082015250565b6000611453601f83610c31565b915061145e8261141d565b602082019050919050565b6000602082019050818103600083015261148281611446565b9050919050565b7f53544154494343414c4c2063616e6e6f742063617272792076616c7565000000600082015250565b60006114bf601d83610c31565b91506114ca82611489565b602082019050919050565b600060208201905081810360008301526114ee816114b2565b9050919050565b60008115159050919050565b61150a816114f5565b82525050565b60006040820190506115256000830185610cb8565b6115326020830184611501565b9392505050565b7f496e7465727072657465723a2045787465726e616c2063616c6c206661696c6560008201527f6400000000000000000000000000000000000000000000000000000000000000602082015250565b6000611595602183610c31565b91506115a082611539565b604082019050919050565b600060208201905081810360008301526115c481611588565b9050919050565b7f4e487b7100000000000000000000000000000000000000000000000000000000600052601160045260246000fd5b600061160582610cae565b91507fffffffffffffffffffffffffffffffffffffffffffffffffffffffffffffffff8203611637576116366115cb565b5b600182019050919050565b60008190508160005260206000209050919050565b60006020601f8301049050919050565b600082821b905092915050565b6000600883026116a47fffffffffffffffffffffffffffffffffffffffffffffffffffffffffffffffff82611667565b6116ae8683611667565b95508019841693508086168417925050509392505050565b6000819050919050565b60006116eb6116e66116e184610cae565b6116c6565b610cae565b9050919050565b6000819050919050565b611705836116d0565b611719611711826116f2565b848454611674565b825550505050565b600090565b61172e611721565b6117398184846116fc565b505050565b5b8181101561175d57611752600082611726565b60018101905061173f565b5050565b601f8211156117a25761177381611642565b61177c84611657565b8101602085101561178b578190505b61179f61179785611657565b83018261173e565b50505b505050565b600082821c905092915050565b60006117c5600019846008026117a7565b1980831691505092915050565b60006117de83836117b4565b9150826002028217905092915050565b6117f7826113a0565b67ffffffffffffffff8111156118105761180f610cfb565b5b61181a825461136f565b611825828285611761565b600060209050601f8311600181146118585760008415611846578287015190505b61185085826117d2565b8655506118b8565b601f19841661186686611642565b60005b8281101561188e57848901518255600182019150602085019450602081019050611869565b868310156118ab57848901516118a7601f8916826117b4565b8355505b6001600288020188555050505b50505050505056fea2646970667358221220411525f76294067041ff47f8d7d976739bcc595c1694032b659b80c49374241f64736f6c63430008140033",
  "linkReferences": {},
  "deployedLinkReferences": {}
}